{
  "contractName": "ThrowProxy",
  "abi": [
    {
      "constant": true,
      "inputs": [],
      "name": "target",
      "outputs": [
        {
          "name": "",
          "type": "address"
        }
      ],
      "payable": false,
      "stateMutability": "view",
      "type": "function"
    },
    {
      "inputs": [
        {
          "name": "_target",
          "type": "address"
        }
      ],
      "payable": false,
      "stateMutability": "nonpayable",
      "type": "constructor"
    },
    {
      "payable": false,
      "stateMutability": "nonpayable",
      "type": "fallback"
    },
    {
      "constant": false,
      "inputs": [
        {
          "name": "_target",
          "type": "address"
        }
      ],
      "name": "retarget",
      "outputs": [],
      "payable": false,
      "stateMutability": "nonpayable",
      "type": "function"
    },
    {
      "constant": false,
      "inputs": [],
      "name": "execute",
      "outputs": [
        {
          "name": "",
          "type": "bool"
        }
      ],
      "payable": false,
      "stateMutability": "nonpayable",
      "type": "function"
    }
  ],
  "bytecode": "0x6060604052341561000f57600080fd5b6040516020806103a683398101604052808051906020019091905050806000806101000a81548173ffffffffffffffffffffffffffffffffffffffff021916908373ffffffffffffffffffffffffffffffffffffffff1602179055505061032b8061007b6000396000f300606060405260043610610057576000357c0100000000000000000000000000000000000000000000000000000000900463ffffffff1680636146195414610077578063b9d6fd2d146100a4578063d4b83992146100dd575b341561006257600080fd5b6000366001919061007492919061025a565b50005b341561008257600080fd5b61008a610132565b604051808215151515815260200191505060405180910390f35b34156100af57600080fd5b6100db600480803573ffffffffffffffffffffffffffffffffffffffff169060200190919050506101f2565b005b34156100e857600080fd5b6100f0610235565b604051808273ffffffffffffffffffffffffffffffffffffffff1673ffffffffffffffffffffffffffffffffffffffff16815260200191505060405180910390f35b60008060009054906101000a900473ffffffffffffffffffffffffffffffffffffffff1673ffffffffffffffffffffffffffffffffffffffff16600160405180828054600181600116156101000203166002900480156101d35780601f106101a8576101008083540402835291602001916101d3565b820191906000526020600020905b8154815290600101906020018083116101b657829003601f168201915b505091505060006040518083038160008661646e5a03f1915050905090565b806000806101000a81548173ffffffffffffffffffffffffffffffffffffffff021916908373ffffffffffffffffffffffffffffffffffffffff16021790555050565b6000809054906101000a900473ffffffffffffffffffffffffffffffffffffffff1681565b828054600181600116156101000203166002900490600052602060002090601f016020900481019282601f1061029b57803560ff19168380011785556102c9565b828001600101855582156102c9579182015b828111156102c85782358255916020019190600101906102ad565b5b5090506102d691906102da565b5090565b6102fc91905b808211156102f85760008160009055506001016102e0565b5090565b905600a165627a7a723058207eb7a22266e73731e9f3ea73b5a46cfa97665e6d6fd53d0382981bfd4e5afa960029",
  "source": "\n// Proxy contract for testing throws\ncontract ThrowProxy {\n  address public target;\n  bytes data;\n\n  function ThrowProxy(address _target) {\n    target = _target;\n  }\n\n  function retarget(address _target) {\n    target = _target;\n  }\n\n  //prime the data using the fallback function.\n  function() {\n    data = msg.data;\n  }\n\n  function execute() returns (bool) {\n    return target.call(data);\n  }\n}",
  "sourcePath": "/home/satchel/INK/contracts/ThrowProxy.sol",
  "compiler": {
    "name": "solc",
    "version": "0.4.19+commit.c4cbbb05.Emscripten.clang"
  },
  "schemaVersion": "2.0.0",
  "updatedAt": "2018-03-21T12:50:21.130Z"
}